{
  "_format": "hh-sol-artifact-1",
  "contractName": "Paymaster",
  "sourceName": "contracts/Paymaster.sol",
  "abi": [
    {
      "inputs": [
        {
          "internalType": "address",
          "name": "_snapAdsContract",
          "type": "address"
        }
      ],
      "stateMutability": "nonpayable",
      "type": "constructor"
    },
    {
      "inputs": [
        {
          "internalType": "enum IPaymaster.PostOpMode",
          "name": "mode",
          "type": "uint8"
        },
        {
          "internalType": "bytes",
          "name": "context",
          "type": "bytes"
        },
        {
          "internalType": "uint256",
          "name": "actualGasCost",
          "type": "uint256"
        }
      ],
      "name": "postOp",
      "outputs": [],
      "stateMutability": "nonpayable",
      "type": "function"
    },
    {
      "inputs": [],
      "name": "snapAdsContract",
      "outputs": [
        {
          "internalType": "address",
          "name": "",
          "type": "address"
        }
      ],
      "stateMutability": "view",
      "type": "function"
    },
    {
      "inputs": [
        {
          "components": [
            {
              "internalType": "address",
              "name": "sender",
              "type": "address"
            },
            {
              "internalType": "uint256",
              "name": "nonce",
              "type": "uint256"
            },
            {
              "internalType": "bytes",
              "name": "initCode",
              "type": "bytes"
            },
            {
              "internalType": "bytes",
              "name": "callData",
              "type": "bytes"
            },
            {
              "internalType": "uint256",
              "name": "callGasLimit",
              "type": "uint256"
            },
            {
              "internalType": "uint256",
              "name": "verificationGasLimit",
              "type": "uint256"
            },
            {
              "internalType": "uint256",
              "name": "preVerificationGas",
              "type": "uint256"
            },
            {
              "internalType": "uint256",
              "name": "maxFeePerGas",
              "type": "uint256"
            },
            {
              "internalType": "uint256",
              "name": "maxPriorityFeePerGas",
              "type": "uint256"
            },
            {
              "internalType": "bytes",
              "name": "paymasterAndData",
              "type": "bytes"
            },
            {
              "internalType": "bytes",
              "name": "signature",
              "type": "bytes"
            }
          ],
          "internalType": "struct UserOperation",
          "name": "userOp",
          "type": "tuple"
        },
        {
          "internalType": "bytes32",
          "name": "",
          "type": "bytes32"
        },
        {
          "internalType": "uint256",
          "name": "",
          "type": "uint256"
        }
      ],
      "name": "validatePaymasterUserOp",
      "outputs": [
        {
          "internalType": "bytes",
          "name": "context",
          "type": "bytes"
        },
        {
          "internalType": "uint256",
          "name": "validationData",
          "type": "uint256"
        }
      ],
      "stateMutability": "view",
      "type": "function"
    }
  ],
  "bytecode": "0x608060405234801561001057600080fd5b5060405161072b38038061072b83398101604081905261002f91610054565b600080546001600160a01b0319166001600160a01b0392909216919091179055610084565b60006020828403121561006657600080fd5b81516001600160a01b038116811461007d57600080fd5b9392505050565b610698806100936000396000f3fe608060405234801561001057600080fd5b50600436106100415760003560e01c8063a9a2340914610046578063d8a052081461005c578063f465c77e1461008c575b600080fd5b61005a6100543660046102e8565b50505050565b005b60005461006f906001600160a01b031681565b6040516001600160a01b0390911681526020015b60405180910390f35b61009f61009a366004610377565b6100ad565b60405161008392919061041b565b6060600036816100c161012088018861043d565b909250905060006100d5826014818661048b565b8080601f016020809104026020016040519081016040528093929190818152602001838380828437600092018290525084519495509384935061012392508501602090810191508501610584565b915091506000610133838361017c565b9050806101575774010000000000000000000000000000000000000000965061015c565b600096505b505060408051600081526020810190915299949850939650505050505050565b600080546040517f308fc8f70000000000000000000000000000000000000000000000000000000081526001600160a01b03909116908290829063308fc8f7906101ca9087906004016105d5565b602060405180830381865afa1580156101e7573d6000803e3d6000fd5b505050506040513d601f19601f8201168201806040525081019061020b91906105ef565b905060005b818110156102da576040517f94c0de170000000000000000000000000000000000000000000000000000000081526000906001600160a01b038516906394c0de1790610262908990869060040161041b565b600060405180830381865afa15801561027f573d6000803e3d6000fd5b505050506040513d6000823e601f3d908101601f191682016040526102a79190810190610608565b50509050866001600160a01b0316816001600160a01b0316036102d15760019450505050506102e2565b50600101610210565b506000925050505b92915050565b600080600080606085870312156102fe57600080fd5b84356003811061030d57600080fd5b9350602085013567ffffffffffffffff8082111561032a57600080fd5b818701915087601f83011261033e57600080fd5b81358181111561034d57600080fd5b88602082850101111561035f57600080fd5b95986020929092019750949560400135945092505050565b60008060006060848603121561038c57600080fd5b833567ffffffffffffffff8111156103a357600080fd5b840161016081870312156103b657600080fd5b95602085013595506040909401359392505050565b60005b838110156103e65781810151838201526020016103ce565b50506000910152565b600081518084526104078160208601602086016103cb565b601f01601f19169290920160200192915050565b60408152600061042e60408301856103ef565b90508260208301529392505050565b6000808335601e1984360301811261045457600080fd5b83018035915067ffffffffffffffff82111561046f57600080fd5b60200191503681900382131561048457600080fd5b9250929050565b6000808585111561049b57600080fd5b838611156104a857600080fd5b5050820193919092039150565b6001600160a01b03811681146104ca57600080fd5b50565b7f4e487b7100000000000000000000000000000000000000000000000000000000600052604160045260246000fd5b600082601f83011261050d57600080fd5b815167ffffffffffffffff80821115610528576105286104cd565b604051601f8301601f19908116603f01168101908282118183101715610550576105506104cd565b8160405283815286602085880101111561056957600080fd5b61057a8460208301602089016103cb565b9695505050505050565b6000806040838503121561059757600080fd5b82516105a2816104b5565b602084015190925067ffffffffffffffff8111156105bf57600080fd5b6105cb858286016104fc565b9150509250929050565b6020815260006105e860208301846103ef565b9392505050565b60006020828403121561060157600080fd5b5051919050565b60008060006060848603121561061d57600080fd5b8351610628816104b5565b602085015190935067ffffffffffffffff81111561064557600080fd5b610651868287016104fc565b92505060408401519050925092509256fea2646970667358221220df8c5ccc5c7bdf37be664254b978588fbce01c90237feb45a96f5f10bcc1b9f964736f6c63430008180033",
  "linkReferences": {},
  "deployedLinkReferences": {}
}